{
	"contracts/safeRemotePurchase.sol": {
		"PurchaseAgreement": {
			"abi": [
				{
					"inputs": [],
					"stateMutability": "payable",
					"type": "constructor"
				},
				{
					"inputs": [],
					"name": "InvalidState",
					"type": "error"
				},
				{
					"inputs": [],
					"name": "OnlyBuyer",
					"type": "error"
				},
				{
					"inputs": [],
					"name": "OnlySeller",
					"type": "error"
				},
				{
					"inputs": [],
					"name": "abort",
					"outputs": [],
					"stateMutability": "nonpayable",
					"type": "function"
				},
				{
					"inputs": [],
					"name": "buyer",
					"outputs": [
						{
							"internalType": "address payable",
							"name": "",
							"type": "address"
						}
					],
					"stateMutability": "view",
					"type": "function"
				},
				{
					"inputs": [],
					"name": "confirmPurchase",
					"outputs": [],
					"stateMutability": "payable",
					"type": "function"
				},
				{
					"inputs": [],
					"name": "confirmReceived",
					"outputs": [],
					"stateMutability": "nonpayable",
					"type": "function"
				},
				{
					"inputs": [],
					"name": "paySeller",
					"outputs": [],
					"stateMutability": "nonpayable",
					"type": "function"
				},
				{
					"inputs": [],
					"name": "seller",
					"outputs": [
						{
							"internalType": "address payable",
							"name": "",
							"type": "address"
						}
					],
					"stateMutability": "view",
					"type": "function"
				},
				{
					"inputs": [],
					"name": "state",
					"outputs": [
						{
							"internalType": "enum PurchaseAgreement.State",
							"name": "",
							"type": "uint8"
						}
					],
					"stateMutability": "view",
					"type": "function"
				},
				{
					"inputs": [],
					"name": "value",
					"outputs": [
						{
							"internalType": "uint256",
							"name": "",
							"type": "uint256"
						}
					],
					"stateMutability": "view",
					"type": "function"
				}
			],
			"devdoc": {
				"kind": "dev",
				"methods": {},
				"version": 1
			},
			"evm": {
				"assembly": "    /* \"contracts/safeRemotePurchase.sol\":58:1642  contract PurchaseAgreement {... */\n  mstore(0x40, 0x80)\n    /* \"contracts/safeRemotePurchase.sol\":316:326  msg.sender */\n  caller\n    /* \"contracts/safeRemotePurchase.sol\":299:305  seller */\n  0x01\n  0x00\n    /* \"contracts/safeRemotePurchase.sol\":299:327  seller = payable(msg.sender) */\n  0x0100\n  exp\n  dup2\n  sload\n  dup2\n  0xffffffffffffffffffffffffffffffffffffffff\n  mul\n  not\n  and\n  swap1\n  dup4\n  0xffffffffffffffffffffffffffffffffffffffff\n  and\n  mul\n  or\n  swap1\n  sstore\n  pop\n    /* \"contracts/safeRemotePurchase.sol\":357:358  2 */\n  0x02\n    /* \"contracts/safeRemotePurchase.sol\":345:354  msg.value */\n  callvalue\n    /* \"contracts/safeRemotePurchase.sol\":345:358  msg.value / 2 */\n  tag_3\n  swap2\n  swap1\n  tag_4\n  jump\t// in\ntag_3:\n    /* \"contracts/safeRemotePurchase.sol\":337:342  value */\n  0x00\n    /* \"contracts/safeRemotePurchase.sol\":337:358  value = msg.value / 2 */\n  dup2\n  swap1\n  sstore\n  pop\n    /* \"contracts/safeRemotePurchase.sol\":58:1642  contract PurchaseAgreement {... */\n  jump(tag_5)\n    /* \"#utility.yul\":7:84   */\ntag_6:\n    /* \"#utility.yul\":44:51   */\n  0x00\n    /* \"#utility.yul\":73:78   */\n  dup2\n    /* \"#utility.yul\":62:78   */\n  swap1\n  pop\n    /* \"#utility.yul\":7:84   */\n  swap2\n  swap1\n  pop\n  jump\t// out\n    /* \"#utility.yul\":90:270   */\ntag_7:\n    /* \"#utility.yul\":138:215   */\n  0x4e487b7100000000000000000000000000000000000000000000000000000000\n    /* \"#utility.yul\":135:136   */\n  0x00\n    /* \"#utility.yul\":128:216   */\n  mstore\n    /* \"#utility.yul\":235:239   */\n  0x12\n    /* \"#utility.yul\":232:233   */\n  0x04\n    /* \"#utility.yul\":225:240   */\n  mstore\n    /* \"#utility.yul\":259:263   */\n  0x24\n    /* \"#utility.yul\":256:257   */\n  0x00\n    /* \"#utility.yul\":249:264   */\n  revert\n    /* \"#utility.yul\":462:647   */\ntag_4:\n    /* \"#utility.yul\":502:503   */\n  0x00\n    /* \"#utility.yul\":519:539   */\n  tag_14\n    /* \"#utility.yul\":537:538   */\n  dup3\n    /* \"#utility.yul\":519:539   */\n  tag_6\n  jump\t// in\ntag_14:\n    /* \"#utility.yul\":514:539   */\n  swap2\n  pop\n    /* \"#utility.yul\":553:573   */\n  tag_15\n    /* \"#utility.yul\":571:572   */\n  dup4\n    /* \"#utility.yul\":553:573   */\n  tag_6\n  jump\t// in\ntag_15:\n    /* \"#utility.yul\":548:573   */\n  swap3\n  pop\n    /* \"#utility.yul\":592:593   */\n  dup3\n    /* \"#utility.yul\":582:617   */\n  tag_16\n  jumpi\n    /* \"#utility.yul\":597:615   */\n  tag_17\n  tag_7\n  jump\t// in\ntag_17:\n    /* \"#utility.yul\":582:617   */\ntag_16:\n    /* \"#utility.yul\":639:640   */\n  dup3\n    /* \"#utility.yul\":636:637   */\n  dup3\n    /* \"#utility.yul\":632:641   */\n  div\n    /* \"#utility.yul\":627:641   */\n  swap1\n  pop\n    /* \"#utility.yul\":462:647   */\n  swap3\n  swap2\n  pop\n  pop\n  jump\t// out\n    /* \"contracts/safeRemotePurchase.sol\":58:1642  contract PurchaseAgreement {... */\ntag_5:\n  dataSize(sub_0)\n  dup1\n  dataOffset(sub_0)\n  0x00\n  codecopy\n  0x00\n  return\nstop\n\nsub_0: assembly {\n        /* \"contracts/safeRemotePurchase.sol\":58:1642  contract PurchaseAgreement {... */\n      mstore(0x40, 0x80)\n      jumpi(tag_1, lt(calldatasize, 0x04))\n      shr(0xe0, calldataload(0x00))\n      dup1\n      0x73fac6f0\n      gt\n      tag_10\n      jumpi\n      dup1\n      0x73fac6f0\n      eq\n      tag_6\n      jumpi\n      dup1\n      0xa0c97bce\n      eq\n      tag_7\n      jumpi\n      dup1\n      0xc19d93fb\n      eq\n      tag_8\n      jumpi\n      dup1\n      0xd6960697\n      eq\n      tag_9\n      jumpi\n      jump(tag_1)\n    tag_10:\n      dup1\n      0x08551a53\n      eq\n      tag_2\n      jumpi\n      dup1\n      0x35a063b4\n      eq\n      tag_3\n      jumpi\n      dup1\n      0x3fa4f245\n      eq\n      tag_4\n      jumpi\n      dup1\n      0x7150d8ae\n      eq\n      tag_5\n      jumpi\n    tag_1:\n      0x00\n      dup1\n      revert\n        /* \"contracts/safeRemotePurchase.sol\":114:143  address payable public seller */\n    tag_2:\n      callvalue\n      dup1\n      iszero\n      tag_11\n      jumpi\n      0x00\n      dup1\n      revert\n    tag_11:\n      pop\n      tag_12\n      tag_13\n      jump\t// in\n    tag_12:\n      mload(0x40)\n      tag_14\n      swap2\n      swap1\n      tag_15\n      jump\t// in\n    tag_14:\n      mload(0x40)\n      dup1\n      swap2\n      sub\n      swap1\n      return\n        /* \"contracts/safeRemotePurchase.sol\":1491:1638  function abort() external onlySeller inState(State.Created) {... */\n    tag_3:\n      callvalue\n      dup1\n      iszero\n      tag_16\n      jumpi\n      0x00\n      dup1\n      revert\n    tag_16:\n      pop\n      tag_17\n      tag_18\n      jump\t// in\n    tag_17:\n      stop\n        /* \"contracts/safeRemotePurchase.sol\":91:108  uint public value */\n    tag_4:\n      callvalue\n      dup1\n      iszero\n      tag_19\n      jumpi\n      0x00\n      dup1\n      revert\n    tag_19:\n      pop\n      tag_20\n      tag_21\n      jump\t// in\n    tag_20:\n      mload(0x40)\n      tag_22\n      swap2\n      swap1\n      tag_23\n      jump\t// in\n    tag_22:\n      mload(0x40)\n      dup1\n      swap2\n      sub\n      swap1\n      return\n        /* \"contracts/safeRemotePurchase.sol\":149:177  address payable public buyer */\n    tag_5:\n      callvalue\n      dup1\n      iszero\n      tag_24\n      jumpi\n      0x00\n      dup1\n      revert\n    tag_24:\n      pop\n      tag_25\n      tag_26\n      jump\t// in\n    tag_25:\n      mload(0x40)\n      tag_27\n      swap2\n      swap1\n      tag_15\n      jump\t// in\n    tag_27:\n      mload(0x40)\n      dup1\n      swap2\n      sub\n      swap1\n      return\n        /* \"contracts/safeRemotePurchase.sol\":1207:1344  function confirmReceived() external onlyBuyer inState(State.Locked) {... */\n    tag_6:\n      callvalue\n      dup1\n      iszero\n      tag_28\n      jumpi\n      0x00\n      dup1\n      revert\n    tag_28:\n      pop\n      tag_29\n      tag_30\n      jump\t// in\n    tag_29:\n      stop\n        /* \"contracts/safeRemotePurchase.sol\":1350:1485  function paySeller() external onlySeller inState(State.Release) {... */\n    tag_7:\n      callvalue\n      dup1\n      iszero\n      tag_31\n      jumpi\n      0x00\n      dup1\n      revert\n    tag_31:\n      pop\n      tag_32\n      tag_33\n      jump\t// in\n    tag_32:\n      stop\n        /* \"contracts/safeRemotePurchase.sol\":242:260  State public state */\n    tag_8:\n      callvalue\n      dup1\n      iszero\n      tag_34\n      jumpi\n      0x00\n      dup1\n      revert\n    tag_34:\n      pop\n      tag_35\n      tag_36\n      jump\t// in\n    tag_35:\n      mload(0x40)\n      tag_37\n      swap2\n      swap1\n      tag_38\n      jump\t// in\n    tag_37:\n      mload(0x40)\n      dup1\n      swap2\n      sub\n      swap1\n      return\n        /* \"contracts/safeRemotePurchase.sol\":976:1201  function confirmPurchase() external inState(State.Created) payable {... */\n    tag_9:\n      tag_39\n      tag_40\n      jump\t// in\n    tag_39:\n      stop\n        /* \"contracts/safeRemotePurchase.sol\":114:143  address payable public seller */\n    tag_13:\n      0x01\n      0x00\n      swap1\n      sload\n      swap1\n      0x0100\n      exp\n      swap1\n      div\n      0xffffffffffffffffffffffffffffffffffffffff\n      and\n      dup2\n      jump\t// out\n        /* \"contracts/safeRemotePurchase.sol\":1491:1638  function abort() external onlySeller inState(State.Created) {... */\n    tag_18:\n        /* \"contracts/safeRemotePurchase.sol\":901:907  seller */\n      0x01\n      0x00\n      swap1\n      sload\n      swap1\n      0x0100\n      exp\n      swap1\n      div\n      0xffffffffffffffffffffffffffffffffffffffff\n      and\n        /* \"contracts/safeRemotePurchase.sol\":887:907  msg.sender != seller */\n      0xffffffffffffffffffffffffffffffffffffffff\n      and\n        /* \"contracts/safeRemotePurchase.sol\":887:897  msg.sender */\n      caller\n        /* \"contracts/safeRemotePurchase.sol\":887:907  msg.sender != seller */\n      0xffffffffffffffffffffffffffffffffffffffff\n      and\n      eq\n        /* \"contracts/safeRemotePurchase.sol\":883:953  if (msg.sender != seller) {... */\n      tag_42\n      jumpi\n        /* \"contracts/safeRemotePurchase.sol\":930:942  OnlySeller() */\n      mload(0x40)\n      0x85d1f72600000000000000000000000000000000000000000000000000000000\n      dup2\n      mstore\n      0x04\n      add\n      mload(0x40)\n      dup1\n      swap2\n      sub\n      swap1\n      revert\n        /* \"contracts/safeRemotePurchase.sol\":883:953  if (msg.sender != seller) {... */\n    tag_42:\n        /* \"contracts/safeRemotePurchase.sol\":1536:1549  State.Created */\n      0x00\n        /* \"contracts/safeRemotePurchase.sol\":652:658  state_ */\n      dup1\n        /* \"contracts/safeRemotePurchase.sol\":643:658  state != state_ */\n      0x03\n      dup2\n      gt\n      iszero\n      tag_44\n      jumpi\n      tag_45\n      tag_46\n      jump\t// in\n    tag_45:\n    tag_44:\n        /* \"contracts/safeRemotePurchase.sol\":643:648  state */\n      0x02\n      0x14\n      swap1\n      sload\n      swap1\n      0x0100\n      exp\n      swap1\n      div\n      0xff\n      and\n        /* \"contracts/safeRemotePurchase.sol\":643:658  state != state_ */\n      0x03\n      dup2\n      gt\n      iszero\n      tag_47\n      jumpi\n      tag_48\n      tag_46\n      jump\t// in\n    tag_48:\n    tag_47:\n      eq\n        /* \"contracts/safeRemotePurchase.sol\":639:706  if (state != state_) {... */\n      tag_49\n      jumpi\n        /* \"contracts/safeRemotePurchase.sol\":681:695  InvalidState() */\n      mload(0x40)\n      0xbaf3f0f700000000000000000000000000000000000000000000000000000000\n      dup2\n      mstore\n      0x04\n      add\n      mload(0x40)\n      dup1\n      swap2\n      sub\n      swap1\n      revert\n        /* \"contracts/safeRemotePurchase.sol\":639:706  if (state != state_) {... */\n    tag_49:\n        /* \"contracts/safeRemotePurchase.sol\":1569:1583  State.Inactive */\n      0x03\n        /* \"contracts/safeRemotePurchase.sol\":1561:1566  state */\n      0x02\n      0x14\n        /* \"contracts/safeRemotePurchase.sol\":1561:1583  state = State.Inactive */\n      0x0100\n      exp\n      dup2\n      sload\n      dup2\n      0xff\n      mul\n      not\n      and\n      swap1\n      dup4\n      0x03\n      dup2\n      gt\n      iszero\n      tag_51\n      jumpi\n      tag_52\n      tag_46\n      jump\t// in\n    tag_52:\n    tag_51:\n      mul\n      or\n      swap1\n      sstore\n      pop\n        /* \"contracts/safeRemotePurchase.sol\":1593:1599  seller */\n      0x01\n      0x00\n      swap1\n      sload\n      swap1\n      0x0100\n      exp\n      swap1\n      div\n      0xffffffffffffffffffffffffffffffffffffffff\n      and\n        /* \"contracts/safeRemotePurchase.sol\":1593:1608  seller.transfer */\n      0xffffffffffffffffffffffffffffffffffffffff\n      and\n        /* \"contracts/safeRemotePurchase.sol\":1593:1631  seller.transfer(address(this).balance) */\n      0x08fc\n        /* \"contracts/safeRemotePurchase.sol\":1609:1630  address(this).balance */\n      selfbalance\n        /* \"contracts/safeRemotePurchase.sol\":1593:1631  seller.transfer(address(this).balance) */\n      swap1\n      dup2\n      iszero\n      mul\n      swap1\n      mload(0x40)\n      0x00\n      mload(0x40)\n      dup1\n      dup4\n      sub\n      dup2\n      dup6\n      dup9\n      dup9\n      call\n      swap4\n      pop\n      pop\n      pop\n      pop\n      iszero\n      dup1\n      iszero\n      tag_54\n      jumpi\n      returndatasize\n      0x00\n      dup1\n      returndatacopy\n      revert(0x00, returndatasize)\n    tag_54:\n      pop\n        /* \"contracts/safeRemotePurchase.sol\":962:963  _ */\n      pop\n        /* \"contracts/safeRemotePurchase.sol\":1491:1638  function abort() external onlySeller inState(State.Created) {... */\n      jump\t// out\n        /* \"contracts/safeRemotePurchase.sol\":91:108  uint public value */\n    tag_21:\n      sload(0x00)\n      dup2\n      jump\t// out\n        /* \"contracts/safeRemotePurchase.sol\":149:177  address payable public buyer */\n    tag_26:\n      0x02\n      0x00\n      swap1\n      sload\n      swap1\n      0x0100\n      exp\n      swap1\n      div\n      0xffffffffffffffffffffffffffffffffffffffff\n      and\n      dup2\n      jump\t// out\n        /* \"contracts/safeRemotePurchase.sol\":1207:1344  function confirmReceived() external onlyBuyer inState(State.Locked) {... */\n    tag_30:\n        /* \"contracts/safeRemotePurchase.sol\":778:783  buyer */\n      0x02\n      0x00\n      swap1\n      sload\n      swap1\n      0x0100\n      exp\n      swap1\n      div\n      0xffffffffffffffffffffffffffffffffffffffff\n      and\n        /* \"contracts/safeRemotePurchase.sol\":764:783  msg.sender != buyer */\n      0xffffffffffffffffffffffffffffffffffffffff\n      and\n        /* \"contracts/safeRemotePurchase.sol\":764:774  msg.sender */\n      caller\n        /* \"contracts/safeRemotePurchase.sol\":764:783  msg.sender != buyer */\n      0xffffffffffffffffffffffffffffffffffffffff\n      and\n      eq\n        /* \"contracts/safeRemotePurchase.sol\":760:828  if (msg.sender != buyer) {... */\n      tag_56\n      jumpi\n        /* \"contracts/safeRemotePurchase.sol\":806:817  OnlyBuyer() */\n      mload(0x40)\n      0x86efbb5500000000000000000000000000000000000000000000000000000000\n      dup2\n      mstore\n      0x04\n      add\n      mload(0x40)\n      dup1\n      swap2\n      sub\n      swap1\n      revert\n        /* \"contracts/safeRemotePurchase.sol\":760:828  if (msg.sender != buyer) {... */\n    tag_56:\n        /* \"contracts/safeRemotePurchase.sol\":1261:1273  State.Locked */\n      0x01\n        /* \"contracts/safeRemotePurchase.sol\":652:658  state_ */\n      dup1\n        /* \"contracts/safeRemotePurchase.sol\":643:658  state != state_ */\n      0x03\n      dup2\n      gt\n      iszero\n      tag_58\n      jumpi\n      tag_59\n      tag_46\n      jump\t// in\n    tag_59:\n    tag_58:\n        /* \"contracts/safeRemotePurchase.sol\":643:648  state */\n      0x02\n      0x14\n      swap1\n      sload\n      swap1\n      0x0100\n      exp\n      swap1\n      div\n      0xff\n      and\n        /* \"contracts/safeRemotePurchase.sol\":643:658  state != state_ */\n      0x03\n      dup2\n      gt\n      iszero\n      tag_60\n      jumpi\n      tag_61\n      tag_46\n      jump\t// in\n    tag_61:\n    tag_60:\n      eq\n        /* \"contracts/safeRemotePurchase.sol\":639:706  if (state != state_) {... */\n      tag_62\n      jumpi\n        /* \"contracts/safeRemotePurchase.sol\":681:695  InvalidState() */\n      mload(0x40)\n      0xbaf3f0f700000000000000000000000000000000000000000000000000000000\n      dup2\n      mstore\n      0x04\n      add\n      mload(0x40)\n      dup1\n      swap2\n      sub\n      swap1\n      revert\n        /* \"contracts/safeRemotePurchase.sol\":639:706  if (state != state_) {... */\n    tag_62:\n        /* \"contracts/safeRemotePurchase.sol\":1293:1306  State.Release */\n      0x02\n        /* \"contracts/safeRemotePurchase.sol\":1285:1290  state */\n      dup1\n      0x14\n        /* \"contracts/safeRemotePurchase.sol\":1285:1306  state = State.Release */\n      0x0100\n      exp\n      dup2\n      sload\n      dup2\n      0xff\n      mul\n      not\n      and\n      swap1\n      dup4\n      0x03\n      dup2\n      gt\n      iszero\n      tag_64\n      jumpi\n      tag_65\n      tag_46\n      jump\t// in\n    tag_65:\n    tag_64:\n      mul\n      or\n      swap1\n      sstore\n      pop\n        /* \"contracts/safeRemotePurchase.sol\":1316:1321  buyer */\n      0x02\n      0x00\n      swap1\n      sload\n      swap1\n      0x0100\n      exp\n      swap1\n      div\n      0xffffffffffffffffffffffffffffffffffffffff\n      and\n        /* \"contracts/safeRemotePurchase.sol\":1316:1330  buyer.transfer */\n      0xffffffffffffffffffffffffffffffffffffffff\n      and\n        /* \"contracts/safeRemotePurchase.sol\":1316:1337  buyer.transfer(value) */\n      0x08fc\n        /* \"contracts/safeRemotePurchase.sol\":1331:1336  value */\n      sload(0x00)\n        /* \"contracts/safeRemotePurchase.sol\":1316:1337  buyer.transfer(value) */\n      swap1\n      dup2\n      iszero\n      mul\n      swap1\n      mload(0x40)\n      0x00\n      mload(0x40)\n      dup1\n      dup4\n      sub\n      dup2\n      dup6\n      dup9\n      dup9\n      call\n      swap4\n      pop\n      pop\n      pop\n      pop\n      iszero\n      dup1\n      iszero\n      tag_67\n      jumpi\n      returndatasize\n      0x00\n      dup1\n      returndatacopy\n      revert(0x00, returndatasize)\n    tag_67:\n      pop\n        /* \"contracts/safeRemotePurchase.sol\":837:838  _ */\n      pop\n        /* \"contracts/safeRemotePurchase.sol\":1207:1344  function confirmReceived() external onlyBuyer inState(State.Locked) {... */\n      jump\t// out\n        /* \"contracts/safeRemotePurchase.sol\":1350:1485  function paySeller() external onlySeller inState(State.Release) {... */\n    tag_33:\n        /* \"contracts/safeRemotePurchase.sol\":901:907  seller */\n      0x01\n      0x00\n      swap1\n      sload\n      swap1\n      0x0100\n      exp\n      swap1\n      div\n      0xffffffffffffffffffffffffffffffffffffffff\n      and\n        /* \"contracts/safeRemotePurchase.sol\":887:907  msg.sender != seller */\n      0xffffffffffffffffffffffffffffffffffffffff\n      and\n        /* \"contracts/safeRemotePurchase.sol\":887:897  msg.sender */\n      caller\n        /* \"contracts/safeRemotePurchase.sol\":887:907  msg.sender != seller */\n      0xffffffffffffffffffffffffffffffffffffffff\n      and\n      eq\n        /* \"contracts/safeRemotePurchase.sol\":883:953  if (msg.sender != seller) {... */\n      tag_69\n      jumpi\n        /* \"contracts/safeRemotePurchase.sol\":930:942  OnlySeller() */\n      mload(0x40)\n      0x85d1f72600000000000000000000000000000000000000000000000000000000\n      dup2\n      mstore\n      0x04\n      add\n      mload(0x40)\n      dup1\n      swap2\n      sub\n      swap1\n      revert\n        /* \"contracts/safeRemotePurchase.sol\":883:953  if (msg.sender != seller) {... */\n    tag_69:\n        /* \"contracts/safeRemotePurchase.sol\":1399:1412  State.Release */\n      0x02\n        /* \"contracts/safeRemotePurchase.sol\":652:658  state_ */\n      dup1\n        /* \"contracts/safeRemotePurchase.sol\":643:658  state != state_ */\n      0x03\n      dup2\n      gt\n      iszero\n      tag_71\n      jumpi\n      tag_72\n      tag_46\n      jump\t// in\n    tag_72:\n    tag_71:\n        /* \"contracts/safeRemotePurchase.sol\":643:648  state */\n      0x02\n      0x14\n      swap1\n      sload\n      swap1\n      0x0100\n      exp\n      swap1\n      div\n      0xff\n      and\n        /* \"contracts/safeRemotePurchase.sol\":643:658  state != state_ */\n      0x03\n      dup2\n      gt\n      iszero\n      tag_73\n      jumpi\n      tag_74\n      tag_46\n      jump\t// in\n    tag_74:\n    tag_73:\n      eq\n        /* \"contracts/safeRemotePurchase.sol\":639:706  if (state != state_) {... */\n      tag_75\n      jumpi\n        /* \"contracts/safeRemotePurchase.sol\":681:695  InvalidState() */\n      mload(0x40)\n      0xbaf3f0f700000000000000000000000000000000000000000000000000000000\n      dup2\n      mstore\n      0x04\n      add\n      mload(0x40)\n      dup1\n      swap2\n      sub\n      swap1\n      revert\n        /* \"contracts/safeRemotePurchase.sol\":639:706  if (state != state_) {... */\n    tag_75:\n        /* \"contracts/safeRemotePurchase.sol\":1430:1444  State.Inactive */\n      0x03\n        /* \"contracts/safeRemotePurchase.sol\":1422:1427  state */\n      0x02\n      0x14\n        /* \"contracts/safeRemotePurchase.sol\":1422:1444  state = State.Inactive */\n      0x0100\n      exp\n      dup2\n      sload\n      dup2\n      0xff\n      mul\n      not\n      and\n      swap1\n      dup4\n      0x03\n      dup2\n      gt\n      iszero\n      tag_77\n      jumpi\n      tag_78\n      tag_46\n      jump\t// in\n    tag_78:\n    tag_77:\n      mul\n      or\n      swap1\n      sstore\n      pop\n        /* \"contracts/safeRemotePurchase.sol\":1452:1458  seller */\n      0x01\n      0x00\n      swap1\n      sload\n      swap1\n      0x0100\n      exp\n      swap1\n      div\n      0xffffffffffffffffffffffffffffffffffffffff\n      and\n        /* \"contracts/safeRemotePurchase.sol\":1452:1467  seller.transfer */\n      0xffffffffffffffffffffffffffffffffffffffff\n      and\n        /* \"contracts/safeRemotePurchase.sol\":1452:1478  seller.transfer(3 * value) */\n      0x08fc\n        /* \"contracts/safeRemotePurchase.sol\":1472:1477  value */\n      sload(0x00)\n        /* \"contracts/safeRemotePurchase.sol\":1468:1469  3 */\n      0x03\n        /* \"contracts/safeRemotePurchase.sol\":1468:1477  3 * value */\n      tag_79\n      swap2\n      swap1\n      tag_80\n      jump\t// in\n    tag_79:\n        /* \"contracts/safeRemotePurchase.sol\":1452:1478  seller.transfer(3 * value) */\n      swap1\n      dup2\n      iszero\n      mul\n      swap1\n      mload(0x40)\n      0x00\n      mload(0x40)\n      dup1\n      dup4\n      sub\n      dup2\n      dup6\n      dup9\n      dup9\n      call\n      swap4\n      pop\n      pop\n      pop\n      pop\n      iszero\n      dup1\n      iszero\n      tag_82\n      jumpi\n      returndatasize\n      0x00\n      dup1\n      returndatacopy\n      revert(0x00, returndatasize)\n    tag_82:\n      pop\n        /* \"contracts/safeRemotePurchase.sol\":962:963  _ */\n      pop\n        /* \"contracts/safeRemotePurchase.sol\":1350:1485  function paySeller() external onlySeller inState(State.Release) {... */\n      jump\t// out\n        /* \"contracts/safeRemotePurchase.sol\":242:260  State public state */\n    tag_36:\n      0x02\n      0x14\n      swap1\n      sload\n      swap1\n      0x0100\n      exp\n      swap1\n      div\n      0xff\n      and\n      dup2\n      jump\t// out\n        /* \"contracts/safeRemotePurchase.sol\":976:1201  function confirmPurchase() external inState(State.Created) payable {... */\n    tag_40:\n        /* \"contracts/safeRemotePurchase.sol\":1020:1033  State.Created */\n      0x00\n        /* \"contracts/safeRemotePurchase.sol\":652:658  state_ */\n      dup1\n        /* \"contracts/safeRemotePurchase.sol\":643:658  state != state_ */\n      0x03\n      dup2\n      gt\n      iszero\n      tag_84\n      jumpi\n      tag_85\n      tag_46\n      jump\t// in\n    tag_85:\n    tag_84:\n        /* \"contracts/safeRemotePurchase.sol\":643:648  state */\n      0x02\n      0x14\n      swap1\n      sload\n      swap1\n      0x0100\n      exp\n      swap1\n      div\n      0xff\n      and\n        /* \"contracts/safeRemotePurchase.sol\":643:658  state != state_ */\n      0x03\n      dup2\n      gt\n      iszero\n      tag_86\n      jumpi\n      tag_87\n      tag_46\n      jump\t// in\n    tag_87:\n    tag_86:\n      eq\n        /* \"contracts/safeRemotePurchase.sol\":639:706  if (state != state_) {... */\n      tag_88\n      jumpi\n        /* \"contracts/safeRemotePurchase.sol\":681:695  InvalidState() */\n      mload(0x40)\n      0xbaf3f0f700000000000000000000000000000000000000000000000000000000\n      dup2\n      mstore\n      0x04\n      add\n      mload(0x40)\n      dup1\n      swap2\n      sub\n      swap1\n      revert\n        /* \"contracts/safeRemotePurchase.sol\":639:706  if (state != state_) {... */\n    tag_88:\n        /* \"contracts/safeRemotePurchase.sol\":1079:1084  value */\n      sload(0x00)\n        /* \"contracts/safeRemotePurchase.sol\":1075:1076  2 */\n      0x02\n        /* \"contracts/safeRemotePurchase.sol\":1075:1084  2 * value */\n      tag_90\n      swap2\n      swap1\n      tag_80\n      jump\t// in\n    tag_90:\n        /* \"contracts/safeRemotePurchase.sol\":1061:1070  msg.value */\n      callvalue\n        /* \"contracts/safeRemotePurchase.sol\":1061:1085  msg.value == (2 * value) */\n      eq\n        /* \"contracts/safeRemotePurchase.sol\":1053:1127  require(msg.value == (2 * value), \"Please send in 2x the purchase amount\") */\n      tag_91\n      jumpi\n      mload(0x40)\n      0x08c379a000000000000000000000000000000000000000000000000000000000\n      dup2\n      mstore\n      0x04\n      add\n      tag_92\n      swap1\n      tag_93\n      jump\t// in\n    tag_92:\n      mload(0x40)\n      dup1\n      swap2\n      sub\n      swap1\n      revert\n    tag_91:\n        /* \"contracts/safeRemotePurchase.sol\":1153:1163  msg.sender */\n      caller\n        /* \"contracts/safeRemotePurchase.sol\":1137:1142  buyer */\n      0x02\n      0x00\n        /* \"contracts/safeRemotePurchase.sol\":1137:1164  buyer = payable(msg.sender) */\n      0x0100\n      exp\n      dup2\n      sload\n      dup2\n      0xffffffffffffffffffffffffffffffffffffffff\n      mul\n      not\n      and\n      swap1\n      dup4\n      0xffffffffffffffffffffffffffffffffffffffff\n      and\n      mul\n      or\n      swap1\n      sstore\n      pop\n        /* \"contracts/safeRemotePurchase.sol\":1182:1194  State.Locked */\n      0x01\n        /* \"contracts/safeRemotePurchase.sol\":1174:1179  state */\n      0x02\n      0x14\n        /* \"contracts/safeRemotePurchase.sol\":1174:1194  state = State.Locked */\n      0x0100\n      exp\n      dup2\n      sload\n      dup2\n      0xff\n      mul\n      not\n      and\n      swap1\n      dup4\n      0x03\n      dup2\n      gt\n      iszero\n      tag_94\n      jumpi\n      tag_95\n      tag_46\n      jump\t// in\n    tag_95:\n    tag_94:\n      mul\n      or\n      swap1\n      sstore\n      pop\n        /* \"contracts/safeRemotePurchase.sol\":976:1201  function confirmPurchase() external inState(State.Created) payable {... */\n      pop\n      jump\t// out\n        /* \"#utility.yul\":7:133   */\n    tag_96:\n        /* \"#utility.yul\":44:51   */\n      0x00\n        /* \"#utility.yul\":84:126   */\n      0xffffffffffffffffffffffffffffffffffffffff\n        /* \"#utility.yul\":77:82   */\n      dup3\n        /* \"#utility.yul\":73:127   */\n      and\n        /* \"#utility.yul\":62:127   */\n      swap1\n      pop\n        /* \"#utility.yul\":7:133   */\n      swap2\n      swap1\n      pop\n      jump\t// out\n        /* \"#utility.yul\":139:243   */\n    tag_97:\n        /* \"#utility.yul\":184:191   */\n      0x00\n        /* \"#utility.yul\":213:237   */\n      tag_112\n        /* \"#utility.yul\":231:236   */\n      dup3\n        /* \"#utility.yul\":213:237   */\n      tag_96\n      jump\t// in\n    tag_112:\n        /* \"#utility.yul\":202:237   */\n      swap1\n      pop\n        /* \"#utility.yul\":139:243   */\n      swap2\n      swap1\n      pop\n      jump\t// out\n        /* \"#utility.yul\":249:391   */\n    tag_98:\n        /* \"#utility.yul\":352:384   */\n      tag_114\n        /* \"#utility.yul\":378:383   */\n      dup2\n        /* \"#utility.yul\":352:384   */\n      tag_97\n      jump\t// in\n    tag_114:\n        /* \"#utility.yul\":347:350   */\n      dup3\n        /* \"#utility.yul\":340:385   */\n      mstore\n        /* \"#utility.yul\":249:391   */\n      pop\n      pop\n      jump\t// out\n        /* \"#utility.yul\":397:651   */\n    tag_15:\n        /* \"#utility.yul\":506:510   */\n      0x00\n        /* \"#utility.yul\":544:546   */\n      0x20\n        /* \"#utility.yul\":533:542   */\n      dup3\n        /* \"#utility.yul\":529:547   */\n      add\n        /* \"#utility.yul\":521:547   */\n      swap1\n      pop\n        /* \"#utility.yul\":557:644   */\n      tag_116\n        /* \"#utility.yul\":641:642   */\n      0x00\n        /* \"#utility.yul\":630:639   */\n      dup4\n        /* \"#utility.yul\":626:643   */\n      add\n        /* \"#utility.yul\":617:623   */\n      dup5\n        /* \"#utility.yul\":557:644   */\n      tag_98\n      jump\t// in\n    tag_116:\n        /* \"#utility.yul\":397:651   */\n      swap3\n      swap2\n      pop\n      pop\n      jump\t// out\n        /* \"#utility.yul\":657:734   */\n    tag_99:\n        /* \"#utility.yul\":694:701   */\n      0x00\n        /* \"#utility.yul\":723:728   */\n      dup2\n        /* \"#utility.yul\":712:728   */\n      swap1\n      pop\n        /* \"#utility.yul\":657:734   */\n      swap2\n      swap1\n      pop\n      jump\t// out\n        /* \"#utility.yul\":740:858   */\n    tag_100:\n        /* \"#utility.yul\":827:851   */\n      tag_119\n        /* \"#utility.yul\":845:850   */\n      dup2\n        /* \"#utility.yul\":827:851   */\n      tag_99\n      jump\t// in\n    tag_119:\n        /* \"#utility.yul\":822:825   */\n      dup3\n        /* \"#utility.yul\":815:852   */\n      mstore\n        /* \"#utility.yul\":740:858   */\n      pop\n      pop\n      jump\t// out\n        /* \"#utility.yul\":864:1086   */\n    tag_23:\n        /* \"#utility.yul\":957:961   */\n      0x00\n        /* \"#utility.yul\":995:997   */\n      0x20\n        /* \"#utility.yul\":984:993   */\n      dup3\n        /* \"#utility.yul\":980:998   */\n      add\n        /* \"#utility.yul\":972:998   */\n      swap1\n      pop\n        /* \"#utility.yul\":1008:1079   */\n      tag_121\n        /* \"#utility.yul\":1076:1077   */\n      0x00\n        /* \"#utility.yul\":1065:1074   */\n      dup4\n        /* \"#utility.yul\":1061:1078   */\n      add\n        /* \"#utility.yul\":1052:1058   */\n      dup5\n        /* \"#utility.yul\":1008:1079   */\n      tag_100\n      jump\t// in\n    tag_121:\n        /* \"#utility.yul\":864:1086   */\n      swap3\n      swap2\n      pop\n      pop\n      jump\t// out\n        /* \"#utility.yul\":1092:1272   */\n    tag_46:\n        /* \"#utility.yul\":1140:1217   */\n      0x4e487b7100000000000000000000000000000000000000000000000000000000\n        /* \"#utility.yul\":1137:1138   */\n      0x00\n        /* \"#utility.yul\":1130:1218   */\n      mstore\n        /* \"#utility.yul\":1237:1241   */\n      0x21\n        /* \"#utility.yul\":1234:1235   */\n      0x04\n        /* \"#utility.yul\":1227:1242   */\n      mstore\n        /* \"#utility.yul\":1261:1265   */\n      0x24\n        /* \"#utility.yul\":1258:1259   */\n      0x00\n        /* \"#utility.yul\":1251:1266   */\n      revert\n        /* \"#utility.yul\":1278:1391   */\n    tag_101:\n        /* \"#utility.yul\":1359:1360   */\n      0x04\n        /* \"#utility.yul\":1352:1357   */\n      dup2\n        /* \"#utility.yul\":1349:1361   */\n      lt\n        /* \"#utility.yul\":1339:1385   */\n      tag_124\n      jumpi\n        /* \"#utility.yul\":1365:1383   */\n      tag_125\n      tag_46\n      jump\t// in\n    tag_125:\n        /* \"#utility.yul\":1339:1385   */\n    tag_124:\n        /* \"#utility.yul\":1278:1391   */\n      pop\n      jump\t// out\n        /* \"#utility.yul\":1397:1524   */\n    tag_102:\n        /* \"#utility.yul\":1442:1449   */\n      0x00\n        /* \"#utility.yul\":1471:1476   */\n      dup2\n        /* \"#utility.yul\":1460:1476   */\n      swap1\n      pop\n        /* \"#utility.yul\":1477:1518   */\n      tag_127\n        /* \"#utility.yul\":1512:1517   */\n      dup3\n        /* \"#utility.yul\":1477:1518   */\n      tag_101\n      jump\t// in\n    tag_127:\n        /* \"#utility.yul\":1397:1524   */\n      swap2\n      swap1\n      pop\n      jump\t// out\n        /* \"#utility.yul\":1530:1657   */\n    tag_103:\n        /* \"#utility.yul\":1586:1595   */\n      0x00\n        /* \"#utility.yul\":1619:1651   */\n      tag_129\n        /* \"#utility.yul\":1645:1650   */\n      dup3\n        /* \"#utility.yul\":1619:1651   */\n      tag_102\n      jump\t// in\n    tag_129:\n        /* \"#utility.yul\":1606:1651   */\n      swap1\n      pop\n        /* \"#utility.yul\":1530:1657   */\n      swap2\n      swap1\n      pop\n      jump\t// out\n        /* \"#utility.yul\":1663:1806   */\n    tag_104:\n        /* \"#utility.yul\":1756:1799   */\n      tag_131\n        /* \"#utility.yul\":1793:1798   */\n      dup2\n        /* \"#utility.yul\":1756:1799   */\n      tag_103\n      jump\t// in\n    tag_131:\n        /* \"#utility.yul\":1751:1754   */\n      dup3\n        /* \"#utility.yul\":1744:1800   */\n      mstore\n        /* \"#utility.yul\":1663:1806   */\n      pop\n      pop\n      jump\t// out\n        /* \"#utility.yul\":1812:2046   */\n    tag_38:\n        /* \"#utility.yul\":1911:1915   */\n      0x00\n        /* \"#utility.yul\":1949:1951   */\n      0x20\n        /* \"#utility.yul\":1938:1947   */\n      dup3\n        /* \"#utility.yul\":1934:1952   */\n      add\n        /* \"#utility.yul\":1926:1952   */\n      swap1\n      pop\n        /* \"#utility.yul\":1962:2039   */\n      tag_133\n        /* \"#utility.yul\":2036:2037   */\n      0x00\n        /* \"#utility.yul\":2025:2034   */\n      dup4\n        /* \"#utility.yul\":2021:2038   */\n      add\n        /* \"#utility.yul\":2012:2018   */\n      dup5\n        /* \"#utility.yul\":1962:2039   */\n      tag_104\n      jump\t// in\n    tag_133:\n        /* \"#utility.yul\":1812:2046   */\n      swap3\n      swap2\n      pop\n      pop\n      jump\t// out\n        /* \"#utility.yul\":2052:2232   */\n    tag_105:\n        /* \"#utility.yul\":2100:2177   */\n      0x4e487b7100000000000000000000000000000000000000000000000000000000\n        /* \"#utility.yul\":2097:2098   */\n      0x00\n        /* \"#utility.yul\":2090:2178   */\n      mstore\n        /* \"#utility.yul\":2197:2201   */\n      0x11\n        /* \"#utility.yul\":2194:2195   */\n      0x04\n        /* \"#utility.yul\":2187:2202   */\n      mstore\n        /* \"#utility.yul\":2221:2225   */\n      0x24\n        /* \"#utility.yul\":2218:2219   */\n      0x00\n        /* \"#utility.yul\":2211:2226   */\n      revert\n        /* \"#utility.yul\":2238:2648   */\n    tag_80:\n        /* \"#utility.yul\":2278:2285   */\n      0x00\n        /* \"#utility.yul\":2301:2321   */\n      tag_136\n        /* \"#utility.yul\":2319:2320   */\n      dup3\n        /* \"#utility.yul\":2301:2321   */\n      tag_99\n      jump\t// in\n    tag_136:\n        /* \"#utility.yul\":2296:2321   */\n      swap2\n      pop\n        /* \"#utility.yul\":2335:2355   */\n      tag_137\n        /* \"#utility.yul\":2353:2354   */\n      dup4\n        /* \"#utility.yul\":2335:2355   */\n      tag_99\n      jump\t// in\n    tag_137:\n        /* \"#utility.yul\":2330:2355   */\n      swap3\n      pop\n        /* \"#utility.yul\":2390:2391   */\n      dup3\n        /* \"#utility.yul\":2387:2388   */\n      dup3\n        /* \"#utility.yul\":2383:2392   */\n      mul\n        /* \"#utility.yul\":2412:2442   */\n      tag_138\n        /* \"#utility.yul\":2430:2441   */\n      dup2\n        /* \"#utility.yul\":2412:2442   */\n      tag_99\n      jump\t// in\n    tag_138:\n        /* \"#utility.yul\":2401:2442   */\n      swap2\n      pop\n        /* \"#utility.yul\":2591:2592   */\n      dup3\n        /* \"#utility.yul\":2582:2589   */\n      dup3\n        /* \"#utility.yul\":2578:2593   */\n      div\n        /* \"#utility.yul\":2575:2576   */\n      dup5\n        /* \"#utility.yul\":2572:2594   */\n      eq\n        /* \"#utility.yul\":2552:2553   */\n      dup4\n        /* \"#utility.yul\":2545:2554   */\n      iszero\n        /* \"#utility.yul\":2525:2608   */\n      or\n        /* \"#utility.yul\":2502:2641   */\n      tag_139\n      jumpi\n        /* \"#utility.yul\":2621:2639   */\n      tag_140\n      tag_105\n      jump\t// in\n    tag_140:\n        /* \"#utility.yul\":2502:2641   */\n    tag_139:\n        /* \"#utility.yul\":2286:2648   */\n      pop\n        /* \"#utility.yul\":2238:2648   */\n      swap3\n      swap2\n      pop\n      pop\n      jump\t// out\n        /* \"#utility.yul\":2654:2823   */\n    tag_106:\n        /* \"#utility.yul\":2738:2749   */\n      0x00\n        /* \"#utility.yul\":2772:2778   */\n      dup3\n        /* \"#utility.yul\":2767:2770   */\n      dup3\n        /* \"#utility.yul\":2760:2779   */\n      mstore\n        /* \"#utility.yul\":2812:2816   */\n      0x20\n        /* \"#utility.yul\":2807:2810   */\n      dup3\n        /* \"#utility.yul\":2803:2817   */\n      add\n        /* \"#utility.yul\":2788:2817   */\n      swap1\n      pop\n        /* \"#utility.yul\":2654:2823   */\n      swap3\n      swap2\n      pop\n      pop\n      jump\t// out\n        /* \"#utility.yul\":2829:3053   */\n    tag_107:\n        /* \"#utility.yul\":2969:3003   */\n      0x506c656173652073656e6420696e203278207468652070757263686173652061\n        /* \"#utility.yul\":2965:2966   */\n      0x00\n        /* \"#utility.yul\":2957:2963   */\n      dup3\n        /* \"#utility.yul\":2953:2967   */\n      add\n        /* \"#utility.yul\":2946:3004   */\n      mstore\n        /* \"#utility.yul\":3038:3045   */\n      0x6d6f756e74000000000000000000000000000000000000000000000000000000\n        /* \"#utility.yul\":3033:3035   */\n      0x20\n        /* \"#utility.yul\":3025:3031   */\n      dup3\n        /* \"#utility.yul\":3021:3036   */\n      add\n        /* \"#utility.yul\":3014:3046   */\n      mstore\n        /* \"#utility.yul\":2829:3053   */\n      pop\n      jump\t// out\n        /* \"#utility.yul\":3059:3425   */\n    tag_108:\n        /* \"#utility.yul\":3201:3204   */\n      0x00\n        /* \"#utility.yul\":3222:3289   */\n      tag_144\n        /* \"#utility.yul\":3286:3288   */\n      0x25\n        /* \"#utility.yul\":3281:3284   */\n      dup4\n        /* \"#utility.yul\":3222:3289   */\n      tag_106\n      jump\t// in\n    tag_144:\n        /* \"#utility.yul\":3215:3289   */\n      swap2\n      pop\n        /* \"#utility.yul\":3298:3391   */\n      tag_145\n        /* \"#utility.yul\":3387:3390   */\n      dup3\n        /* \"#utility.yul\":3298:3391   */\n      tag_107\n      jump\t// in\n    tag_145:\n        /* \"#utility.yul\":3416:3418   */\n      0x40\n        /* \"#utility.yul\":3411:3414   */\n      dup3\n        /* \"#utility.yul\":3407:3419   */\n      add\n        /* \"#utility.yul\":3400:3419   */\n      swap1\n      pop\n        /* \"#utility.yul\":3059:3425   */\n      swap2\n      swap1\n      pop\n      jump\t// out\n        /* \"#utility.yul\":3431:3850   */\n    tag_93:\n        /* \"#utility.yul\":3597:3601   */\n      0x00\n        /* \"#utility.yul\":3635:3637   */\n      0x20\n        /* \"#utility.yul\":3624:3633   */\n      dup3\n        /* \"#utility.yul\":3620:3638   */\n      add\n        /* \"#utility.yul\":3612:3638   */\n      swap1\n      pop\n        /* \"#utility.yul\":3684:3693   */\n      dup2\n        /* \"#utility.yul\":3678:3682   */\n      dup2\n        /* \"#utility.yul\":3674:3694   */\n      sub\n        /* \"#utility.yul\":3670:3671   */\n      0x00\n        /* \"#utility.yul\":3659:3668   */\n      dup4\n        /* \"#utility.yul\":3655:3672   */\n      add\n        /* \"#utility.yul\":3648:3695   */\n      mstore\n        /* \"#utility.yul\":3712:3843   */\n      tag_147\n        /* \"#utility.yul\":3838:3842   */\n      dup2\n        /* \"#utility.yul\":3712:3843   */\n      tag_108\n      jump\t// in\n    tag_147:\n        /* \"#utility.yul\":3704:3843   */\n      swap1\n      pop\n        /* \"#utility.yul\":3431:3850   */\n      swap2\n      swap1\n      pop\n      jump\t// out\n\n    auxdata: 0xa2646970667358221220c7c7f351515b88b25907ddf6613bd5b60f09ac89a805d0eeef7cc02ea8cb715364736f6c63430008120033\n}\n",
				"bytecode": {
					"linkReferences": {},
					"object": "608060405233600160006101000a81548173ffffffffffffffffffffffffffffffffffffffff021916908373ffffffffffffffffffffffffffffffffffffffff1602179055506002346100529190610096565b6000819055506100c7565b6000819050919050565b7f4e487b7100000000000000000000000000000000000000000000000000000000600052601260045260246000fd5b60006100a18261005d565b91506100ac8361005d565b9250826100bc576100bb610067565b5b828204905092915050565b610a2c806100d66000396000f3fe60806040526004361061007b5760003560e01c806373fac6f01161004e57806373fac6f014610118578063a0c97bce1461012f578063c19d93fb14610146578063d6960697146101715761007b565b806308551a531461008057806335a063b4146100ab5780633fa4f245146100c25780637150d8ae146100ed575b600080fd5b34801561008c57600080fd5b5061009561017b565b6040516100a29190610801565b60405180910390f35b3480156100b757600080fd5b506100c06101a1565b005b3480156100ce57600080fd5b506100d761032d565b6040516100e49190610835565b60405180910390f35b3480156100f957600080fd5b50610102610333565b60405161010f9190610801565b60405180910390f35b34801561012457600080fd5b5061012d610359565b005b34801561013b57600080fd5b506101446104e6565b005b34801561015257600080fd5b5061015b610680565b60405161016891906108c7565b60405180910390f35b610179610693565b005b600160009054906101000a900473ffffffffffffffffffffffffffffffffffffffff1681565b600160009054906101000a900473ffffffffffffffffffffffffffffffffffffffff1673ffffffffffffffffffffffffffffffffffffffff163373ffffffffffffffffffffffffffffffffffffffff1614610228576040517f85d1f72600000000000000000000000000000000000000000000000000000000815260040160405180910390fd5b600080600381111561023d5761023c610850565b5b600260149054906101000a900460ff16600381111561025f5761025e610850565b5b14610296576040517fbaf3f0f700000000000000000000000000000000000000000000000000000000815260040160405180910390fd5b6003600260146101000a81548160ff021916908360038111156102bc576102bb610850565b5b0217905550600160009054906101000a900473ffffffffffffffffffffffffffffffffffffffff1673ffffffffffffffffffffffffffffffffffffffff166108fc479081150290604051600060405180830381858888f19350505050158015610329573d6000803e3d6000fd5b5050565b60005481565b600260009054906101000a900473ffffffffffffffffffffffffffffffffffffffff1681565b600260009054906101000a900473ffffffffffffffffffffffffffffffffffffffff1673ffffffffffffffffffffffffffffffffffffffff163373ffffffffffffffffffffffffffffffffffffffff16146103e0576040517f86efbb5500000000000000000000000000000000000000000000000000000000815260040160405180910390fd5b60018060038111156103f5576103f4610850565b5b600260149054906101000a900460ff16600381111561041757610416610850565b5b1461044e576040517fbaf3f0f700000000000000000000000000000000000000000000000000000000815260040160405180910390fd5b60028060146101000a81548160ff0219169083600381111561047357610472610850565b5b0217905550600260009054906101000a900473ffffffffffffffffffffffffffffffffffffffff1673ffffffffffffffffffffffffffffffffffffffff166108fc6000549081150290604051600060405180830381858888f193505050501580156104e2573d6000803e3d6000fd5b5050565b600160009054906101000a900473ffffffffffffffffffffffffffffffffffffffff1673ffffffffffffffffffffffffffffffffffffffff163373ffffffffffffffffffffffffffffffffffffffff161461056d576040517f85d1f72600000000000000000000000000000000000000000000000000000000815260040160405180910390fd5b600280600381111561058257610581610850565b5b600260149054906101000a900460ff1660038111156105a4576105a3610850565b5b146105db576040517fbaf3f0f700000000000000000000000000000000000000000000000000000000815260040160405180910390fd5b6003600260146101000a81548160ff0219169083600381111561060157610600610850565b5b0217905550600160009054906101000a900473ffffffffffffffffffffffffffffffffffffffff1673ffffffffffffffffffffffffffffffffffffffff166108fc60005460036106519190610911565b9081150290604051600060405180830381858888f1935050505015801561067c573d6000803e3d6000fd5b5050565b600260149054906101000a900460ff1681565b60008060038111156106a8576106a7610850565b5b600260149054906101000a900460ff1660038111156106ca576106c9610850565b5b14610701576040517fbaf3f0f700000000000000000000000000000000000000000000000000000000815260040160405180910390fd5b60005460026107109190610911565b3414610751576040517f08c379a0000000000000000000000000000000000000000000000000000000008152600401610748906109d6565b60405180910390fd5b33600260006101000a81548173ffffffffffffffffffffffffffffffffffffffff021916908373ffffffffffffffffffffffffffffffffffffffff1602179055506001600260146101000a81548160ff021916908360038111156107b8576107b7610850565b5b021790555050565b600073ffffffffffffffffffffffffffffffffffffffff82169050919050565b60006107eb826107c0565b9050919050565b6107fb816107e0565b82525050565b600060208201905061081660008301846107f2565b92915050565b6000819050919050565b61082f8161081c565b82525050565b600060208201905061084a6000830184610826565b92915050565b7f4e487b7100000000000000000000000000000000000000000000000000000000600052602160045260246000fd5b600481106108905761088f610850565b5b50565b60008190506108a18261087f565b919050565b60006108b182610893565b9050919050565b6108c1816108a6565b82525050565b60006020820190506108dc60008301846108b8565b92915050565b7f4e487b7100000000000000000000000000000000000000000000000000000000600052601160045260246000fd5b600061091c8261081c565b91506109278361081c565b92508282026109358161081c565b9150828204841483151761094c5761094b6108e2565b5b5092915050565b600082825260208201905092915050565b7f506c656173652073656e6420696e20327820746865207075726368617365206160008201527f6d6f756e74000000000000000000000000000000000000000000000000000000602082015250565b60006109c0602583610953565b91506109cb82610964565b604082019050919050565b600060208201905081810360008301526109ef816109b3565b905091905056fea2646970667358221220c7c7f351515b88b25907ddf6613bd5b60f09ac89a805d0eeef7cc02ea8cb715364736f6c63430008120033",
					"opcodes": "PUSH1 0x80 PUSH1 0x40 MSTORE CALLER PUSH1 0x1 PUSH1 0x0 PUSH2 0x100 EXP DUP2 SLOAD DUP2 PUSH20 0xFFFFFFFFFFFFFFFFFFFFFFFFFFFFFFFFFFFFFFFF MUL NOT AND SWAP1 DUP4 PUSH20 0xFFFFFFFFFFFFFFFFFFFFFFFFFFFFFFFFFFFFFFFF AND MUL OR SWAP1 SSTORE POP PUSH1 0x2 CALLVALUE PUSH2 0x52 SWAP2 SWAP1 PUSH2 0x96 JUMP JUMPDEST PUSH1 0x0 DUP2 SWAP1 SSTORE POP PUSH2 0xC7 JUMP JUMPDEST PUSH1 0x0 DUP2 SWAP1 POP SWAP2 SWAP1 POP JUMP JUMPDEST PUSH32 0x4E487B7100000000000000000000000000000000000000000000000000000000 PUSH1 0x0 MSTORE PUSH1 0x12 PUSH1 0x4 MSTORE PUSH1 0x24 PUSH1 0x0 REVERT JUMPDEST PUSH1 0x0 PUSH2 0xA1 DUP3 PUSH2 0x5D JUMP JUMPDEST SWAP2 POP PUSH2 0xAC DUP4 PUSH2 0x5D JUMP JUMPDEST SWAP3 POP DUP3 PUSH2 0xBC JUMPI PUSH2 0xBB PUSH2 0x67 JUMP JUMPDEST JUMPDEST DUP3 DUP3 DIV SWAP1 POP SWAP3 SWAP2 POP POP JUMP JUMPDEST PUSH2 0xA2C DUP1 PUSH2 0xD6 PUSH1 0x0 CODECOPY PUSH1 0x0 RETURN INVALID PUSH1 0x80 PUSH1 0x40 MSTORE PUSH1 0x4 CALLDATASIZE LT PUSH2 0x7B JUMPI PUSH1 0x0 CALLDATALOAD PUSH1 0xE0 SHR DUP1 PUSH4 0x73FAC6F0 GT PUSH2 0x4E JUMPI DUP1 PUSH4 0x73FAC6F0 EQ PUSH2 0x118 JUMPI DUP1 PUSH4 0xA0C97BCE EQ PUSH2 0x12F JUMPI DUP1 PUSH4 0xC19D93FB EQ PUSH2 0x146 JUMPI DUP1 PUSH4 0xD6960697 EQ PUSH2 0x171 JUMPI PUSH2 0x7B JUMP JUMPDEST DUP1 PUSH4 0x8551A53 EQ PUSH2 0x80 JUMPI DUP1 PUSH4 0x35A063B4 EQ PUSH2 0xAB JUMPI DUP1 PUSH4 0x3FA4F245 EQ PUSH2 0xC2 JUMPI DUP1 PUSH4 0x7150D8AE EQ PUSH2 0xED JUMPI JUMPDEST PUSH1 0x0 DUP1 REVERT JUMPDEST CALLVALUE DUP1 ISZERO PUSH2 0x8C JUMPI PUSH1 0x0 DUP1 REVERT JUMPDEST POP PUSH2 0x95 PUSH2 0x17B JUMP JUMPDEST PUSH1 0x40 MLOAD PUSH2 0xA2 SWAP2 SWAP1 PUSH2 0x801 JUMP JUMPDEST PUSH1 0x40 MLOAD DUP1 SWAP2 SUB SWAP1 RETURN JUMPDEST CALLVALUE DUP1 ISZERO PUSH2 0xB7 JUMPI PUSH1 0x0 DUP1 REVERT JUMPDEST POP PUSH2 0xC0 PUSH2 0x1A1 JUMP JUMPDEST STOP JUMPDEST CALLVALUE DUP1 ISZERO PUSH2 0xCE JUMPI PUSH1 0x0 DUP1 REVERT JUMPDEST POP PUSH2 0xD7 PUSH2 0x32D JUMP JUMPDEST PUSH1 0x40 MLOAD PUSH2 0xE4 SWAP2 SWAP1 PUSH2 0x835 JUMP JUMPDEST PUSH1 0x40 MLOAD DUP1 SWAP2 SUB SWAP1 RETURN JUMPDEST CALLVALUE DUP1 ISZERO PUSH2 0xF9 JUMPI PUSH1 0x0 DUP1 REVERT JUMPDEST POP PUSH2 0x102 PUSH2 0x333 JUMP JUMPDEST PUSH1 0x40 MLOAD PUSH2 0x10F SWAP2 SWAP1 PUSH2 0x801 JUMP JUMPDEST PUSH1 0x40 MLOAD DUP1 SWAP2 SUB SWAP1 RETURN JUMPDEST CALLVALUE DUP1 ISZERO PUSH2 0x124 JUMPI PUSH1 0x0 DUP1 REVERT JUMPDEST POP PUSH2 0x12D PUSH2 0x359 JUMP JUMPDEST STOP JUMPDEST CALLVALUE DUP1 ISZERO PUSH2 0x13B JUMPI PUSH1 0x0 DUP1 REVERT JUMPDEST POP PUSH2 0x144 PUSH2 0x4E6 JUMP JUMPDEST STOP JUMPDEST CALLVALUE DUP1 ISZERO PUSH2 0x152 JUMPI PUSH1 0x0 DUP1 REVERT JUMPDEST POP PUSH2 0x15B PUSH2 0x680 JUMP JUMPDEST PUSH1 0x40 MLOAD PUSH2 0x168 SWAP2 SWAP1 PUSH2 0x8C7 JUMP JUMPDEST PUSH1 0x40 MLOAD DUP1 SWAP2 SUB SWAP1 RETURN JUMPDEST PUSH2 0x179 PUSH2 0x693 JUMP JUMPDEST STOP JUMPDEST PUSH1 0x1 PUSH1 0x0 SWAP1 SLOAD SWAP1 PUSH2 0x100 EXP SWAP1 DIV PUSH20 0xFFFFFFFFFFFFFFFFFFFFFFFFFFFFFFFFFFFFFFFF AND DUP2 JUMP JUMPDEST PUSH1 0x1 PUSH1 0x0 SWAP1 SLOAD SWAP1 PUSH2 0x100 EXP SWAP1 DIV PUSH20 0xFFFFFFFFFFFFFFFFFFFFFFFFFFFFFFFFFFFFFFFF AND PUSH20 0xFFFFFFFFFFFFFFFFFFFFFFFFFFFFFFFFFFFFFFFF AND CALLER PUSH20 0xFFFFFFFFFFFFFFFFFFFFFFFFFFFFFFFFFFFFFFFF AND EQ PUSH2 0x228 JUMPI PUSH1 0x40 MLOAD PUSH32 0x85D1F72600000000000000000000000000000000000000000000000000000000 DUP2 MSTORE PUSH1 0x4 ADD PUSH1 0x40 MLOAD DUP1 SWAP2 SUB SWAP1 REVERT JUMPDEST PUSH1 0x0 DUP1 PUSH1 0x3 DUP2 GT ISZERO PUSH2 0x23D JUMPI PUSH2 0x23C PUSH2 0x850 JUMP JUMPDEST JUMPDEST PUSH1 0x2 PUSH1 0x14 SWAP1 SLOAD SWAP1 PUSH2 0x100 EXP SWAP1 DIV PUSH1 0xFF AND PUSH1 0x3 DUP2 GT ISZERO PUSH2 0x25F JUMPI PUSH2 0x25E PUSH2 0x850 JUMP JUMPDEST JUMPDEST EQ PUSH2 0x296 JUMPI PUSH1 0x40 MLOAD PUSH32 0xBAF3F0F700000000000000000000000000000000000000000000000000000000 DUP2 MSTORE PUSH1 0x4 ADD PUSH1 0x40 MLOAD DUP1 SWAP2 SUB SWAP1 REVERT JUMPDEST PUSH1 0x3 PUSH1 0x2 PUSH1 0x14 PUSH2 0x100 EXP DUP2 SLOAD DUP2 PUSH1 0xFF MUL NOT AND SWAP1 DUP4 PUSH1 0x3 DUP2 GT ISZERO PUSH2 0x2BC JUMPI PUSH2 0x2BB PUSH2 0x850 JUMP JUMPDEST JUMPDEST MUL OR SWAP1 SSTORE POP PUSH1 0x1 PUSH1 0x0 SWAP1 SLOAD SWAP1 PUSH2 0x100 EXP SWAP1 DIV PUSH20 0xFFFFFFFFFFFFFFFFFFFFFFFFFFFFFFFFFFFFFFFF AND PUSH20 0xFFFFFFFFFFFFFFFFFFFFFFFFFFFFFFFFFFFFFFFF AND PUSH2 0x8FC SELFBALANCE SWAP1 DUP2 ISZERO MUL SWAP1 PUSH1 0x40 MLOAD PUSH1 0x0 PUSH1 0x40 MLOAD DUP1 DUP4 SUB DUP2 DUP6 DUP9 DUP9 CALL SWAP4 POP POP POP POP ISZERO DUP1 ISZERO PUSH2 0x329 JUMPI RETURNDATASIZE PUSH1 0x0 DUP1 RETURNDATACOPY RETURNDATASIZE PUSH1 0x0 REVERT JUMPDEST POP POP JUMP JUMPDEST PUSH1 0x0 SLOAD DUP2 JUMP JUMPDEST PUSH1 0x2 PUSH1 0x0 SWAP1 SLOAD SWAP1 PUSH2 0x100 EXP SWAP1 DIV PUSH20 0xFFFFFFFFFFFFFFFFFFFFFFFFFFFFFFFFFFFFFFFF AND DUP2 JUMP JUMPDEST PUSH1 0x2 PUSH1 0x0 SWAP1 SLOAD SWAP1 PUSH2 0x100 EXP SWAP1 DIV PUSH20 0xFFFFFFFFFFFFFFFFFFFFFFFFFFFFFFFFFFFFFFFF AND PUSH20 0xFFFFFFFFFFFFFFFFFFFFFFFFFFFFFFFFFFFFFFFF AND CALLER PUSH20 0xFFFFFFFFFFFFFFFFFFFFFFFFFFFFFFFFFFFFFFFF AND EQ PUSH2 0x3E0 JUMPI PUSH1 0x40 MLOAD PUSH32 0x86EFBB5500000000000000000000000000000000000000000000000000000000 DUP2 MSTORE PUSH1 0x4 ADD PUSH1 0x40 MLOAD DUP1 SWAP2 SUB SWAP1 REVERT JUMPDEST PUSH1 0x1 DUP1 PUSH1 0x3 DUP2 GT ISZERO PUSH2 0x3F5 JUMPI PUSH2 0x3F4 PUSH2 0x850 JUMP JUMPDEST JUMPDEST PUSH1 0x2 PUSH1 0x14 SWAP1 SLOAD SWAP1 PUSH2 0x100 EXP SWAP1 DIV PUSH1 0xFF AND PUSH1 0x3 DUP2 GT ISZERO PUSH2 0x417 JUMPI PUSH2 0x416 PUSH2 0x850 JUMP JUMPDEST JUMPDEST EQ PUSH2 0x44E JUMPI PUSH1 0x40 MLOAD PUSH32 0xBAF3F0F700000000000000000000000000000000000000000000000000000000 DUP2 MSTORE PUSH1 0x4 ADD PUSH1 0x40 MLOAD DUP1 SWAP2 SUB SWAP1 REVERT JUMPDEST PUSH1 0x2 DUP1 PUSH1 0x14 PUSH2 0x100 EXP DUP2 SLOAD DUP2 PUSH1 0xFF MUL NOT AND SWAP1 DUP4 PUSH1 0x3 DUP2 GT ISZERO PUSH2 0x473 JUMPI PUSH2 0x472 PUSH2 0x850 JUMP JUMPDEST JUMPDEST MUL OR SWAP1 SSTORE POP PUSH1 0x2 PUSH1 0x0 SWAP1 SLOAD SWAP1 PUSH2 0x100 EXP SWAP1 DIV PUSH20 0xFFFFFFFFFFFFFFFFFFFFFFFFFFFFFFFFFFFFFFFF AND PUSH20 0xFFFFFFFFFFFFFFFFFFFFFFFFFFFFFFFFFFFFFFFF AND PUSH2 0x8FC PUSH1 0x0 SLOAD SWAP1 DUP2 ISZERO MUL SWAP1 PUSH1 0x40 MLOAD PUSH1 0x0 PUSH1 0x40 MLOAD DUP1 DUP4 SUB DUP2 DUP6 DUP9 DUP9 CALL SWAP4 POP POP POP POP ISZERO DUP1 ISZERO PUSH2 0x4E2 JUMPI RETURNDATASIZE PUSH1 0x0 DUP1 RETURNDATACOPY RETURNDATASIZE PUSH1 0x0 REVERT JUMPDEST POP POP JUMP JUMPDEST PUSH1 0x1 PUSH1 0x0 SWAP1 SLOAD SWAP1 PUSH2 0x100 EXP SWAP1 DIV PUSH20 0xFFFFFFFFFFFFFFFFFFFFFFFFFFFFFFFFFFFFFFFF AND PUSH20 0xFFFFFFFFFFFFFFFFFFFFFFFFFFFFFFFFFFFFFFFF AND CALLER PUSH20 0xFFFFFFFFFFFFFFFFFFFFFFFFFFFFFFFFFFFFFFFF AND EQ PUSH2 0x56D JUMPI PUSH1 0x40 MLOAD PUSH32 0x85D1F72600000000000000000000000000000000000000000000000000000000 DUP2 MSTORE PUSH1 0x4 ADD PUSH1 0x40 MLOAD DUP1 SWAP2 SUB SWAP1 REVERT JUMPDEST PUSH1 0x2 DUP1 PUSH1 0x3 DUP2 GT ISZERO PUSH2 0x582 JUMPI PUSH2 0x581 PUSH2 0x850 JUMP JUMPDEST JUMPDEST PUSH1 0x2 PUSH1 0x14 SWAP1 SLOAD SWAP1 PUSH2 0x100 EXP SWAP1 DIV PUSH1 0xFF AND PUSH1 0x3 DUP2 GT ISZERO PUSH2 0x5A4 JUMPI PUSH2 0x5A3 PUSH2 0x850 JUMP JUMPDEST JUMPDEST EQ PUSH2 0x5DB JUMPI PUSH1 0x40 MLOAD PUSH32 0xBAF3F0F700000000000000000000000000000000000000000000000000000000 DUP2 MSTORE PUSH1 0x4 ADD PUSH1 0x40 MLOAD DUP1 SWAP2 SUB SWAP1 REVERT JUMPDEST PUSH1 0x3 PUSH1 0x2 PUSH1 0x14 PUSH2 0x100 EXP DUP2 SLOAD DUP2 PUSH1 0xFF MUL NOT AND SWAP1 DUP4 PUSH1 0x3 DUP2 GT ISZERO PUSH2 0x601 JUMPI PUSH2 0x600 PUSH2 0x850 JUMP JUMPDEST JUMPDEST MUL OR SWAP1 SSTORE POP PUSH1 0x1 PUSH1 0x0 SWAP1 SLOAD SWAP1 PUSH2 0x100 EXP SWAP1 DIV PUSH20 0xFFFFFFFFFFFFFFFFFFFFFFFFFFFFFFFFFFFFFFFF AND PUSH20 0xFFFFFFFFFFFFFFFFFFFFFFFFFFFFFFFFFFFFFFFF AND PUSH2 0x8FC PUSH1 0x0 SLOAD PUSH1 0x3 PUSH2 0x651 SWAP2 SWAP1 PUSH2 0x911 JUMP JUMPDEST SWAP1 DUP2 ISZERO MUL SWAP1 PUSH1 0x40 MLOAD PUSH1 0x0 PUSH1 0x40 MLOAD DUP1 DUP4 SUB DUP2 DUP6 DUP9 DUP9 CALL SWAP4 POP POP POP POP ISZERO DUP1 ISZERO PUSH2 0x67C JUMPI RETURNDATASIZE PUSH1 0x0 DUP1 RETURNDATACOPY RETURNDATASIZE PUSH1 0x0 REVERT JUMPDEST POP POP JUMP JUMPDEST PUSH1 0x2 PUSH1 0x14 SWAP1 SLOAD SWAP1 PUSH2 0x100 EXP SWAP1 DIV PUSH1 0xFF AND DUP2 JUMP JUMPDEST PUSH1 0x0 DUP1 PUSH1 0x3 DUP2 GT ISZERO PUSH2 0x6A8 JUMPI PUSH2 0x6A7 PUSH2 0x850 JUMP JUMPDEST JUMPDEST PUSH1 0x2 PUSH1 0x14 SWAP1 SLOAD SWAP1 PUSH2 0x100 EXP SWAP1 DIV PUSH1 0xFF AND PUSH1 0x3 DUP2 GT ISZERO PUSH2 0x6CA JUMPI PUSH2 0x6C9 PUSH2 0x850 JUMP JUMPDEST JUMPDEST EQ PUSH2 0x701 JUMPI PUSH1 0x40 MLOAD PUSH32 0xBAF3F0F700000000000000000000000000000000000000000000000000000000 DUP2 MSTORE PUSH1 0x4 ADD PUSH1 0x40 MLOAD DUP1 SWAP2 SUB SWAP1 REVERT JUMPDEST PUSH1 0x0 SLOAD PUSH1 0x2 PUSH2 0x710 SWAP2 SWAP1 PUSH2 0x911 JUMP JUMPDEST CALLVALUE EQ PUSH2 0x751 JUMPI PUSH1 0x40 MLOAD PUSH32 0x8C379A000000000000000000000000000000000000000000000000000000000 DUP2 MSTORE PUSH1 0x4 ADD PUSH2 0x748 SWAP1 PUSH2 0x9D6 JUMP JUMPDEST PUSH1 0x40 MLOAD DUP1 SWAP2 SUB SWAP1 REVERT JUMPDEST CALLER PUSH1 0x2 PUSH1 0x0 PUSH2 0x100 EXP DUP2 SLOAD DUP2 PUSH20 0xFFFFFFFFFFFFFFFFFFFFFFFFFFFFFFFFFFFFFFFF MUL NOT AND SWAP1 DUP4 PUSH20 0xFFFFFFFFFFFFFFFFFFFFFFFFFFFFFFFFFFFFFFFF AND MUL OR SWAP1 SSTORE POP PUSH1 0x1 PUSH1 0x2 PUSH1 0x14 PUSH2 0x100 EXP DUP2 SLOAD DUP2 PUSH1 0xFF MUL NOT AND SWAP1 DUP4 PUSH1 0x3 DUP2 GT ISZERO PUSH2 0x7B8 JUMPI PUSH2 0x7B7 PUSH2 0x850 JUMP JUMPDEST JUMPDEST MUL OR SWAP1 SSTORE POP POP JUMP JUMPDEST PUSH1 0x0 PUSH20 0xFFFFFFFFFFFFFFFFFFFFFFFFFFFFFFFFFFFFFFFF DUP3 AND SWAP1 POP SWAP2 SWAP1 POP JUMP JUMPDEST PUSH1 0x0 PUSH2 0x7EB DUP3 PUSH2 0x7C0 JUMP JUMPDEST SWAP1 POP SWAP2 SWAP1 POP JUMP JUMPDEST PUSH2 0x7FB DUP2 PUSH2 0x7E0 JUMP JUMPDEST DUP3 MSTORE POP POP JUMP JUMPDEST PUSH1 0x0 PUSH1 0x20 DUP3 ADD SWAP1 POP PUSH2 0x816 PUSH1 0x0 DUP4 ADD DUP5 PUSH2 0x7F2 JUMP JUMPDEST SWAP3 SWAP2 POP POP JUMP JUMPDEST PUSH1 0x0 DUP2 SWAP1 POP SWAP2 SWAP1 POP JUMP JUMPDEST PUSH2 0x82F DUP2 PUSH2 0x81C JUMP JUMPDEST DUP3 MSTORE POP POP JUMP JUMPDEST PUSH1 0x0 PUSH1 0x20 DUP3 ADD SWAP1 POP PUSH2 0x84A PUSH1 0x0 DUP4 ADD DUP5 PUSH2 0x826 JUMP JUMPDEST SWAP3 SWAP2 POP POP JUMP JUMPDEST PUSH32 0x4E487B7100000000000000000000000000000000000000000000000000000000 PUSH1 0x0 MSTORE PUSH1 0x21 PUSH1 0x4 MSTORE PUSH1 0x24 PUSH1 0x0 REVERT JUMPDEST PUSH1 0x4 DUP2 LT PUSH2 0x890 JUMPI PUSH2 0x88F PUSH2 0x850 JUMP JUMPDEST JUMPDEST POP JUMP JUMPDEST PUSH1 0x0 DUP2 SWAP1 POP PUSH2 0x8A1 DUP3 PUSH2 0x87F JUMP JUMPDEST SWAP2 SWAP1 POP JUMP JUMPDEST PUSH1 0x0 PUSH2 0x8B1 DUP3 PUSH2 0x893 JUMP JUMPDEST SWAP1 POP SWAP2 SWAP1 POP JUMP JUMPDEST PUSH2 0x8C1 DUP2 PUSH2 0x8A6 JUMP JUMPDEST DUP3 MSTORE POP POP JUMP JUMPDEST PUSH1 0x0 PUSH1 0x20 DUP3 ADD SWAP1 POP PUSH2 0x8DC PUSH1 0x0 DUP4 ADD DUP5 PUSH2 0x8B8 JUMP JUMPDEST SWAP3 SWAP2 POP POP JUMP JUMPDEST PUSH32 0x4E487B7100000000000000000000000000000000000000000000000000000000 PUSH1 0x0 MSTORE PUSH1 0x11 PUSH1 0x4 MSTORE PUSH1 0x24 PUSH1 0x0 REVERT JUMPDEST PUSH1 0x0 PUSH2 0x91C DUP3 PUSH2 0x81C JUMP JUMPDEST SWAP2 POP PUSH2 0x927 DUP4 PUSH2 0x81C JUMP JUMPDEST SWAP3 POP DUP3 DUP3 MUL PUSH2 0x935 DUP2 PUSH2 0x81C JUMP JUMPDEST SWAP2 POP DUP3 DUP3 DIV DUP5 EQ DUP4 ISZERO OR PUSH2 0x94C JUMPI PUSH2 0x94B PUSH2 0x8E2 JUMP JUMPDEST JUMPDEST POP SWAP3 SWAP2 POP POP JUMP JUMPDEST PUSH1 0x0 DUP3 DUP3 MSTORE PUSH1 0x20 DUP3 ADD SWAP1 POP SWAP3 SWAP2 POP POP JUMP JUMPDEST PUSH32 0x506C656173652073656E6420696E203278207468652070757263686173652061 PUSH1 0x0 DUP3 ADD MSTORE PUSH32 0x6D6F756E74000000000000000000000000000000000000000000000000000000 PUSH1 0x20 DUP3 ADD MSTORE POP JUMP JUMPDEST PUSH1 0x0 PUSH2 0x9C0 PUSH1 0x25 DUP4 PUSH2 0x953 JUMP JUMPDEST SWAP2 POP PUSH2 0x9CB DUP3 PUSH2 0x964 JUMP JUMPDEST PUSH1 0x40 DUP3 ADD SWAP1 POP SWAP2 SWAP1 POP JUMP JUMPDEST PUSH1 0x0 PUSH1 0x20 DUP3 ADD SWAP1 POP DUP2 DUP2 SUB PUSH1 0x0 DUP4 ADD MSTORE PUSH2 0x9EF DUP2 PUSH2 0x9B3 JUMP JUMPDEST SWAP1 POP SWAP2 SWAP1 POP JUMP INVALID LOG2 PUSH5 0x6970667358 0x22 SLT KECCAK256 0xC7 0xC7 RETURN MLOAD MLOAD JUMPDEST DUP9 0xB2 MSIZE SMOD 0xDD 0xF6 PUSH2 0x3BD5 0xB6 0xF MULMOD 0xAC DUP10 0xA8 SDIV 0xD0 0xEE 0xEF PUSH29 0xC02EA8CB715364736F6C63430008120033000000000000000000000000 "
				},
				"gasEstimates": {
					"creation": {
						"codeDepositCost": "520800",
						"executionCost": "infinite",
						"totalCost": "infinite"
					},
					"external": {
						"abort()": "infinite",
						"buyer()": "2581",
						"confirmPurchase()": "infinite",
						"confirmReceived()": "infinite",
						"paySeller()": "infinite",
						"seller()": "2515",
						"state()": "2654",
						"value()": "2474"
					}
				},
				"methodIdentifiers": {
					"abort()": "35a063b4",
					"buyer()": "7150d8ae",
					"confirmPurchase()": "d6960697",
					"confirmReceived()": "73fac6f0",
					"paySeller()": "a0c97bce",
					"seller()": "08551a53",
					"state()": "c19d93fb",
					"value()": "3fa4f245"
				}
			},
			"storageLayout": {
				"storage": [
					{
						"astId": 3,
						"contract": "contracts/safeRemotePurchase.sol:PurchaseAgreement",
						"label": "value",
						"offset": 0,
						"slot": "0",
						"type": "t_uint256"
					},
					{
						"astId": 5,
						"contract": "contracts/safeRemotePurchase.sol:PurchaseAgreement",
						"label": "seller",
						"offset": 0,
						"slot": "1",
						"type": "t_address_payable"
					},
					{
						"astId": 7,
						"contract": "contracts/safeRemotePurchase.sol:PurchaseAgreement",
						"label": "buyer",
						"offset": 0,
						"slot": "2",
						"type": "t_address_payable"
					},
					{
						"astId": 15,
						"contract": "contracts/safeRemotePurchase.sol:PurchaseAgreement",
						"label": "state",
						"offset": 20,
						"slot": "2",
						"type": "t_enum(State)12"
					}
				],
				"types": {
					"t_address_payable": {
						"encoding": "inplace",
						"label": "address payable",
						"numberOfBytes": "20"
					},
					"t_enum(State)12": {
						"encoding": "inplace",
						"label": "enum PurchaseAgreement.State",
						"numberOfBytes": "1"
					},
					"t_uint256": {
						"encoding": "inplace",
						"label": "uint256",
						"numberOfBytes": "32"
					}
				}
			},
			"userdoc": {
				"errors": {
					"InvalidState()": [
						{
							"notice": "The function cannot be called at the current state."
						}
					],
					"OnlyBuyer()": [
						{
							"notice": "Ony the buyer can call this function"
						}
					],
					"OnlySeller()": [
						{
							"notice": "Ony the seller can call this function"
						}
					]
				},
				"kind": "user",
				"methods": {},
				"version": 1
			}
		}
	}
}